{
  "contractName": "FestivalTicketNFT",
  "abi": [
    {
      "inputs": [
        {
          "internalType": "address",
          "name": "_currencyToken",
          "type": "address"
        }
      ],
      "stateMutability": "nonpayable",
      "type": "constructor"
    },
    {
      "anonymous": false,
      "inputs": [
        {
          "indexed": true,
          "internalType": "address",
          "name": "owner",
          "type": "address"
        },
        {
          "indexed": true,
          "internalType": "address",
          "name": "approved",
          "type": "address"
        },
        {
          "indexed": true,
          "internalType": "uint256",
          "name": "tokenId",
          "type": "uint256"
        }
      ],
      "name": "Approval",
      "type": "event"
    },
    {
      "anonymous": false,
      "inputs": [
        {
          "indexed": true,
          "internalType": "address",
          "name": "owner",
          "type": "address"
        },
        {
          "indexed": true,
          "internalType": "address",
          "name": "operator",
          "type": "address"
        },
        {
          "indexed": false,
          "internalType": "bool",
          "name": "approved",
          "type": "bool"
        }
      ],
      "name": "ApprovalForAll",
      "type": "event"
    },
    {
      "anonymous": false,
      "inputs": [
        {
          "indexed": true,
          "internalType": "address",
          "name": "previousOwner",
          "type": "address"
        },
        {
          "indexed": true,
          "internalType": "address",
          "name": "newOwner",
          "type": "address"
        }
      ],
      "name": "OwnershipTransferred",
      "type": "event"
    },
    {
      "anonymous": false,
      "inputs": [
        {
          "indexed": true,
          "internalType": "address",
          "name": "from",
          "type": "address"
        },
        {
          "indexed": true,
          "internalType": "address",
          "name": "to",
          "type": "address"
        },
        {
          "indexed": true,
          "internalType": "uint256",
          "name": "tokenId",
          "type": "uint256"
        }
      ],
      "name": "Transfer",
      "type": "event"
    },
    {
      "inputs": [
        {
          "internalType": "address",
          "name": "to",
          "type": "address"
        },
        {
          "internalType": "uint256",
          "name": "tokenId",
          "type": "uint256"
        }
      ],
      "name": "approve",
      "outputs": [],
      "stateMutability": "nonpayable",
      "type": "function"
    },
    {
      "inputs": [
        {
          "internalType": "address",
          "name": "owner",
          "type": "address"
        }
      ],
      "name": "balanceOf",
      "outputs": [
        {
          "internalType": "uint256",
          "name": "",
          "type": "uint256"
        }
      ],
      "stateMutability": "view",
      "type": "function",
      "constant": true
    },
    {
      "inputs": [],
      "name": "currencyToken",
      "outputs": [
        {
          "internalType": "address",
          "name": "",
          "type": "address"
        }
      ],
      "stateMutability": "view",
      "type": "function",
      "constant": true
    },
    {
      "inputs": [],
      "name": "currentTicketId",
      "outputs": [
        {
          "internalType": "uint256",
          "name": "",
          "type": "uint256"
        }
      ],
      "stateMutability": "view",
      "type": "function",
      "constant": true
    },
    {
      "inputs": [
        {
          "internalType": "uint256",
          "name": "tokenId",
          "type": "uint256"
        }
      ],
      "name": "getApproved",
      "outputs": [
        {
          "internalType": "address",
          "name": "",
          "type": "address"
        }
      ],
      "stateMutability": "view",
      "type": "function",
      "constant": true
    },
    {
      "inputs": [
        {
          "internalType": "address",
          "name": "owner",
          "type": "address"
        },
        {
          "internalType": "address",
          "name": "operator",
          "type": "address"
        }
      ],
      "name": "isApprovedForAll",
      "outputs": [
        {
          "internalType": "bool",
          "name": "",
          "type": "bool"
        }
      ],
      "stateMutability": "view",
      "type": "function",
      "constant": true
    },
    {
      "inputs": [],
      "name": "maxTickets",
      "outputs": [
        {
          "internalType": "uint256",
          "name": "",
          "type": "uint256"
        }
      ],
      "stateMutability": "view",
      "type": "function",
      "constant": true
    },
    {
      "inputs": [],
      "name": "name",
      "outputs": [
        {
          "internalType": "string",
          "name": "",
          "type": "string"
        }
      ],
      "stateMutability": "view",
      "type": "function",
      "constant": true
    },
    {
      "inputs": [],
      "name": "organizer",
      "outputs": [
        {
          "internalType": "address",
          "name": "",
          "type": "address"
        }
      ],
      "stateMutability": "view",
      "type": "function",
      "constant": true
    },
    {
      "inputs": [],
      "name": "organizerCutPercentage",
      "outputs": [
        {
          "internalType": "uint256",
          "name": "",
          "type": "uint256"
        }
      ],
      "stateMutability": "view",
      "type": "function",
      "constant": true
    },
    {
      "inputs": [],
      "name": "owner",
      "outputs": [
        {
          "internalType": "address",
          "name": "",
          "type": "address"
        }
      ],
      "stateMutability": "view",
      "type": "function",
      "constant": true
    },
    {
      "inputs": [
        {
          "internalType": "uint256",
          "name": "tokenId",
          "type": "uint256"
        }
      ],
      "name": "ownerOf",
      "outputs": [
        {
          "internalType": "address",
          "name": "",
          "type": "address"
        }
      ],
      "stateMutability": "view",
      "type": "function",
      "constant": true
    },
    {
      "inputs": [],
      "name": "priceIncreasePercentage",
      "outputs": [
        {
          "internalType": "uint256",
          "name": "",
          "type": "uint256"
        }
      ],
      "stateMutability": "view",
      "type": "function",
      "constant": true
    },
    {
      "inputs": [],
      "name": "renounceOwnership",
      "outputs": [],
      "stateMutability": "nonpayable",
      "type": "function"
    },
    {
      "inputs": [
        {
          "internalType": "address",
          "name": "from",
          "type": "address"
        },
        {
          "internalType": "address",
          "name": "to",
          "type": "address"
        },
        {
          "internalType": "uint256",
          "name": "tokenId",
          "type": "uint256"
        }
      ],
      "name": "safeTransferFrom",
      "outputs": [],
      "stateMutability": "nonpayable",
      "type": "function"
    },
    {
      "inputs": [
        {
          "internalType": "address",
          "name": "from",
          "type": "address"
        },
        {
          "internalType": "address",
          "name": "to",
          "type": "address"
        },
        {
          "internalType": "uint256",
          "name": "tokenId",
          "type": "uint256"
        },
        {
          "internalType": "bytes",
          "name": "data",
          "type": "bytes"
        }
      ],
      "name": "safeTransferFrom",
      "outputs": [],
      "stateMutability": "nonpayable",
      "type": "function"
    },
    {
      "inputs": [
        {
          "internalType": "address",
          "name": "operator",
          "type": "address"
        },
        {
          "internalType": "bool",
          "name": "approved",
          "type": "bool"
        }
      ],
      "name": "setApprovalForAll",
      "outputs": [],
      "stateMutability": "nonpayable",
      "type": "function"
    },
    {
      "inputs": [
        {
          "internalType": "bytes4",
          "name": "interfaceId",
          "type": "bytes4"
        }
      ],
      "name": "supportsInterface",
      "outputs": [
        {
          "internalType": "bool",
          "name": "",
          "type": "bool"
        }
      ],
      "stateMutability": "view",
      "type": "function",
      "constant": true
    },
    {
      "inputs": [],
      "name": "symbol",
      "outputs": [
        {
          "internalType": "string",
          "name": "",
          "type": "string"
        }
      ],
      "stateMutability": "view",
      "type": "function",
      "constant": true
    },
    {
      "inputs": [
        {
          "internalType": "uint256",
          "name": "",
          "type": "uint256"
        }
      ],
      "name": "tickets",
      "outputs": [
        {
          "internalType": "uint256",
          "name": "price",
          "type": "uint256"
        },
        {
          "internalType": "address",
          "name": "owner",
          "type": "address"
        }
      ],
      "stateMutability": "view",
      "type": "function",
      "constant": true
    },
    {
      "inputs": [
        {
          "internalType": "uint256",
          "name": "index",
          "type": "uint256"
        }
      ],
      "name": "tokenByIndex",
      "outputs": [
        {
          "internalType": "uint256",
          "name": "",
          "type": "uint256"
        }
      ],
      "stateMutability": "view",
      "type": "function",
      "constant": true
    },
    {
      "inputs": [
        {
          "internalType": "address",
          "name": "owner",
          "type": "address"
        },
        {
          "internalType": "uint256",
          "name": "index",
          "type": "uint256"
        }
      ],
      "name": "tokenOfOwnerByIndex",
      "outputs": [
        {
          "internalType": "uint256",
          "name": "",
          "type": "uint256"
        }
      ],
      "stateMutability": "view",
      "type": "function",
      "constant": true
    },
    {
      "inputs": [
        {
          "internalType": "uint256",
          "name": "tokenId",
          "type": "uint256"
        }
      ],
      "name": "tokenURI",
      "outputs": [
        {
          "internalType": "string",
          "name": "",
          "type": "string"
        }
      ],
      "stateMutability": "view",
      "type": "function",
      "constant": true
    },
    {
      "inputs": [],
      "name": "totalSupply",
      "outputs": [
        {
          "internalType": "uint256",
          "name": "",
          "type": "uint256"
        }
      ],
      "stateMutability": "view",
      "type": "function",
      "constant": true
    },
    {
      "inputs": [
        {
          "internalType": "address",
          "name": "from",
          "type": "address"
        },
        {
          "internalType": "address",
          "name": "to",
          "type": "address"
        },
        {
          "internalType": "uint256",
          "name": "tokenId",
          "type": "uint256"
        }
      ],
      "name": "transferFrom",
      "outputs": [],
      "stateMutability": "nonpayable",
      "type": "function"
    },
    {
      "inputs": [
        {
          "internalType": "address",
          "name": "newOwner",
          "type": "address"
        }
      ],
      "name": "transferOwnership",
      "outputs": [],
      "stateMutability": "nonpayable",
      "type": "function"
    },
    {
      "inputs": [
        {
          "internalType": "uint256",
          "name": "_cutPercentage",
          "type": "uint256"
        }
      ],
      "name": "setOrganizerCutPercentage",
      "outputs": [],
      "stateMutability": "nonpayable",
      "type": "function"
    },
    {
      "inputs": [],
      "name": "ticketPrice",
      "outputs": [
        {
          "internalType": "uint256",
          "name": "",
          "type": "uint256"
        }
      ],
      "stateMutability": "pure",
      "type": "function",
      "constant": true
    },
    {
      "inputs": [],
      "name": "buyTicket",
      "outputs": [],
      "stateMutability": "payable",
      "type": "function",
      "payable": true
    },
    {
      "inputs": [
        {
          "internalType": "address",
          "name": "to",
          "type": "address"
        },
        {
          "internalType": "uint256",
          "name": "tokenId",
          "type": "uint256"
        },
        {
          "internalType": "uint256",
          "name": "price",
          "type": "uint256"
        }
      ],
      "name": "sellTicket",
      "outputs": [],
      "stateMutability": "nonpayable",
      "type": "function"
    }
  ],
  "bytecode": "0x60806040526103e8600b556005600d556001600f5534801562000020575f80fd5b5060405162004285380380620042858339818101604052810190620000469190620002ad565b6040518060400160405280600e81526020017f466573746976616c5469636b65740000000000000000000000000000000000008152506040518060400160405280600281526020017f4654000000000000000000000000000000000000000000000000000000000000815250815f9081620000c2919062000541565b508060019081620000d4919062000541565b505050620000f7620000eb6200017e60201b60201c565b6200018560201b60201c565b80600c5f6101000a81548173ffffffffffffffffffffffffffffffffffffffff021916908373ffffffffffffffffffffffffffffffffffffffff16021790555033600e5f6101000a81548173ffffffffffffffffffffffffffffffffffffffff021916908373ffffffffffffffffffffffffffffffffffffffff1602179055505062000625565b5f33905090565b5f600a5f9054906101000a900473ffffffffffffffffffffffffffffffffffffffff16905081600a5f6101000a81548173ffffffffffffffffffffffffffffffffffffffff021916908373ffffffffffffffffffffffffffffffffffffffff1602179055508173ffffffffffffffffffffffffffffffffffffffff168173ffffffffffffffffffffffffffffffffffffffff167f8be0079c531659141344cd1fd0a4f28419497f9722a3daafe3b4186f6b6457e060405160405180910390a35050565b5f80fd5b5f73ffffffffffffffffffffffffffffffffffffffff82169050919050565b5f62000277826200024c565b9050919050565b62000289816200026b565b811462000294575f80fd5b50565b5f81519050620002a7816200027e565b92915050565b5f60208284031215620002c557620002c462000248565b5b5f620002d48482850162000297565b91505092915050565b5f81519050919050565b7f4e487b71000000000000000000000000000000000000000000000000000000005f52604160045260245ffd5b7f4e487b71000000000000000000000000000000000000000000000000000000005f52602260045260245ffd5b5f60028204905060018216806200035957607f821691505b6020821081036200036f576200036e62000314565b5b50919050565b5f819050815f5260205f209050919050565b5f6020601f8301049050919050565b5f82821b905092915050565b5f60088302620003d37fffffffffffffffffffffffffffffffffffffffffffffffffffffffffffffffff8262000396565b620003df868362000396565b95508019841693508086168417925050509392505050565b5f819050919050565b5f819050919050565b5f62000429620004236200041d84620003f7565b62000400565b620003f7565b9050919050565b5f819050919050565b620004448362000409565b6200045c620004538262000430565b848454620003a2565b825550505050565b5f90565b6200047262000464565b6200047f81848462000439565b505050565b5b81811015620004a6576200049a5f8262000468565b60018101905062000485565b5050565b601f821115620004f557620004bf8162000375565b620004ca8462000387565b81016020851015620004da578190505b620004f2620004e98562000387565b83018262000484565b50505b505050565b5f82821c905092915050565b5f620005175f1984600802620004fa565b1980831691505092915050565b5f62000531838362000506565b9150826002028217905092915050565b6200054c82620002dd565b67ffffffffffffffff811115620005685762000567620002e7565b5b62000574825462000341565b62000581828285620004aa565b5f60209050601f831160018114620005b7575f8415620005a2578287015190505b620005ae858262000524565b8655506200061d565b601f198416620005c78662000375565b5f5b82811015620005f057848901518255600182019150602085019450602081019050620005c9565b868310156200061057848901516200060c601f89168262000506565b8355505b6001600288020188555050505b505050505050565b613c5280620006335f395ff3fe6080604052600436106101cc575f3560e01c8063686465b8116100f65780639b89470311610094578063e985e9c511610063578063e985e9c514610685578063edca914c146106c1578063f2fde38b146106cb578063fc130af4146106f3576101cc565b80639b894703146105cf578063a22cb465146105f9578063b88d4fde14610621578063c87b56dd14610649576101cc565b8063715018a6116100d0578063715018a61461053d5780638da5cb5b1461055357806393b36d981461057d57806395d89b41146105a5576101cc565b8063686465b8146104ad5780636b2fa374146104d757806370a0823114610501576101cc565b80632f745c591161016e5780634f6ccce71161013d5780634f6ccce7146103ce57806350b447121461040a57806361203265146104475780636352211e14610471576101cc565b80632f745c5914610316578063351c9dbc1461035257806342842e0e1461037c5780634af734c2146103a4576101cc565b8063095ea7b3116101aa578063095ea7b3146102725780631209b1f61461029a57806318160ddd146102c457806323b872dd146102ee576101cc565b806301ffc9a7146101d057806306fdde031461020c578063081812fc14610236575b5f80fd5b3480156101db575f80fd5b506101f660048036038101906101f191906128d3565b61071b565b6040516102039190612918565b60405180910390f35b348015610217575f80fd5b50610220610794565b60405161022d91906129bb565b60405180910390f35b348015610241575f80fd5b5061025c60048036038101906102579190612a0e565b610823565b6040516102699190612a78565b60405180910390f35b34801561027d575f80fd5b5061029860048036038101906102939190612abb565b610865565b005b3480156102a5575f80fd5b506102ae61097b565b6040516102bb9190612b08565b60405180910390f35b3480156102cf575f80fd5b506102d861098a565b6040516102e59190612b08565b60405180910390f35b3480156102f9575f80fd5b50610314600480360381019061030f9190612b21565b610996565b005b348015610321575f80fd5b5061033c60048036038101906103379190612abb565b6109f6565b6040516103499190612b08565b60405180910390f35b34801561035d575f80fd5b50610366610a96565b6040516103739190612b08565b60405180910390f35b348015610387575f80fd5b506103a2600480360381019061039d9190612b21565b610a9b565b005b3480156103af575f80fd5b506103b8610aba565b6040516103c59190612b08565b60405180910390f35b3480156103d9575f80fd5b506103f460048036038101906103ef9190612a0e565b610ac0565b6040516104019190612b08565b60405180910390f35b348015610415575f80fd5b50610430600480360381019061042b9190612a0e565b610b2e565b60405161043e929190612b71565b60405180910390f35b348015610452575f80fd5b5061045b610b6d565b6040516104689190612a78565b60405180910390f35b34801561047c575f80fd5b5061049760048036038101906104929190612a0e565b610b92565b6040516104a49190612a78565b60405180910390f35b3480156104b8575f80fd5b506104c1610c16565b6040516104ce9190612b08565b60405180910390f35b3480156104e2575f80fd5b506104eb610c1c565b6040516104f89190612a78565b60405180910390f35b34801561050c575f80fd5b5061052760048036038101906105229190612b98565b610c41565b6040516105349190612b08565b60405180910390f35b348015610548575f80fd5b50610551610cf5565b005b34801561055e575f80fd5b50610567610d08565b6040516105749190612a78565b60405180910390f35b348015610588575f80fd5b506105a3600480360381019061059e9190612a0e565b610d30565b005b3480156105b0575f80fd5b506105b9610d42565b6040516105c691906129bb565b60405180910390f35b3480156105da575f80fd5b506105e3610dd2565b6040516105f09190612b08565b60405180910390f35b348015610604575f80fd5b5061061f600480360381019061061a9190612bed565b610dd8565b005b34801561062c575f80fd5b5061064760048036038101906106429190612d57565b610dee565b005b348015610654575f80fd5b5061066f600480360381019061066a9190612a0e565b610e50565b60405161067c91906129bb565b60405180910390f35b348015610690575f80fd5b506106ab60048036038101906106a69190612dd7565b610eb5565b6040516106b89190612918565b60405180910390f35b6106c9610f43565b005b3480156106d6575f80fd5b506106f160048036038101906106ec9190612b98565b61108c565b005b3480156106fe575f80fd5b5061071960048036038101906107149190612e15565b61110e565b005b5f7f780e9d63000000000000000000000000000000000000000000000000000000007bffffffffffffffffffffffffffffffffffffffffffffffffffffffff1916827bffffffffffffffffffffffffffffffffffffffffffffffffffffffff1916148061078d575061078c826114be565b5b9050919050565b60605f80546107a290612e92565b80601f01602080910402602001604051908101604052809291908181526020018280546107ce90612e92565b80156108195780601f106107f057610100808354040283529160200191610819565b820191905f5260205f20905b8154815290600101906020018083116107fc57829003601f168201915b5050505050905090565b5f61082d8261159f565b60045f8381526020019081526020015f205f9054906101000a900473ffffffffffffffffffffffffffffffffffffffff169050919050565b5f61086f82610b92565b90508073ffffffffffffffffffffffffffffffffffffffff168373ffffffffffffffffffffffffffffffffffffffff16036108df576040517f08c379a00000000000000000000000000000000000000000000000000000000081526004016108d690612f32565b60405180910390fd5b8073ffffffffffffffffffffffffffffffffffffffff166108fe6115ea565b73ffffffffffffffffffffffffffffffffffffffff16148061092d575061092c816109276115ea565b610eb5565b5b61096c576040517f08c379a000000000000000000000000000000000000000000000000000000000815260040161096390612fc0565b60405180910390fd5b61097683836115f1565b505050565b5f670de0b6b3a7640000905090565b5f600880549050905090565b6109a76109a16115ea565b826116a7565b6109e6576040517f08c379a00000000000000000000000000000000000000000000000000000000081526004016109dd9061304e565b60405180910390fd5b6109f183838361173b565b505050565b5f610a0083610c41565b8210610a41576040517f08c379a0000000000000000000000000000000000000000000000000000000008152600401610a38906130dc565b60405180910390fd5b60065f8473ffffffffffffffffffffffffffffffffffffffff1673ffffffffffffffffffffffffffffffffffffffff1681526020019081526020015f205f8381526020019081526020015f2054905092915050565b606e81565b610ab583838360405180602001604052805f815250610dee565b505050565b600d5481565b5f610ac961098a565b8210610b0a576040517f08c379a0000000000000000000000000000000000000000000000000000000008152600401610b019061316a565b60405180910390fd5b60088281548110610b1e57610b1d613188565b5b905f5260205f2001549050919050565b6010602052805f5260405f205f91509050805f015490806001015f9054906101000a900473ffffffffffffffffffffffffffffffffffffffff16905082565b600e5f9054906101000a900473ffffffffffffffffffffffffffffffffffffffff1681565b5f80610b9d83611a27565b90505f73ffffffffffffffffffffffffffffffffffffffff168173ffffffffffffffffffffffffffffffffffffffff1603610c0d576040517f08c379a0000000000000000000000000000000000000000000000000000000008152600401610c04906131ff565b60405180910390fd5b80915050919050565b600f5481565b600c5f9054906101000a900473ffffffffffffffffffffffffffffffffffffffff1681565b5f8073ffffffffffffffffffffffffffffffffffffffff168273ffffffffffffffffffffffffffffffffffffffff1603610cb0576040517f08c379a0000000000000000000000000000000000000000000000000000000008152600401610ca79061328d565b60405180910390fd5b60035f8373ffffffffffffffffffffffffffffffffffffffff1673ffffffffffffffffffffffffffffffffffffffff1681526020019081526020015f20549050919050565b610cfd611a60565b610d065f611ade565b565b5f600a5f9054906101000a900473ffffffffffffffffffffffffffffffffffffffff16905090565b610d38611a60565b80600d8190555050565b606060018054610d5190612e92565b80601f0160208091040260200160405190810160405280929190818152602001828054610d7d90612e92565b8015610dc85780601f10610d9f57610100808354040283529160200191610dc8565b820191905f5260205f20905b815481529060010190602001808311610dab57829003601f168201915b5050505050905090565b600b5481565b610dea610de36115ea565b8383611ba1565b5050565b610dff610df96115ea565b836116a7565b610e3e576040517f08c379a0000000000000000000000000000000000000000000000000000000008152600401610e359061304e565b60405180910390fd5b610e4a84848484611d08565b50505050565b6060610e5b8261159f565b5f610e64611d64565b90505f815111610e825760405180602001604052805f815250610ead565b80610e8c84611d7a565b604051602001610e9d9291906132e5565b6040516020818303038152906040525b915050919050565b5f60055f8473ffffffffffffffffffffffffffffffffffffffff1673ffffffffffffffffffffffffffffffffffffffff1681526020019081526020015f205f8373ffffffffffffffffffffffffffffffffffffffff1673ffffffffffffffffffffffffffffffffffffffff1681526020019081526020015f205f9054906101000a900460ff16905092915050565b600b54600f541115610f8a576040517f08c379a0000000000000000000000000000000000000000000000000000000008152600401610f8190613352565b60405180910390fd5b5f610f9361097b565b9050803414610fd7576040517f08c379a0000000000000000000000000000000000000000000000000000000008152600401610fce906133ba565b60405180910390fd5b610fe333600f54611e44565b60405180604001604052808281526020013373ffffffffffffffffffffffffffffffffffffffff1681525060105f600f5481526020019081526020015f205f820151815f01556020820151816001015f6101000a81548173ffffffffffffffffffffffffffffffffffffffff021916908373ffffffffffffffffffffffffffffffffffffffff160217905550905050600f5f81548092919061108490613405565b919050555050565b611094611a60565b5f73ffffffffffffffffffffffffffffffffffffffff168173ffffffffffffffffffffffffffffffffffffffff1603611102576040517f08c379a00000000000000000000000000000000000000000000000000000000081526004016110f9906134bc565b60405180910390fd5b61110b81611ade565b50565b813373ffffffffffffffffffffffffffffffffffffffff1661112f82610b92565b73ffffffffffffffffffffffffffffffffffffffff1614611185576040517f08c379a000000000000000000000000000000000000000000000000000000000815260040161117c90613524565b60405180910390fd5b5f6111c060646111b2606e60105f8981526020019081526020015f205f015461205790919063ffffffff16565b61206c90919063ffffffff16565b905080831115611205576040517f08c379a00000000000000000000000000000000000000000000000000000000081526004016111fc906135b2565b60405180910390fd5b5f61122e6064611220600d548761205790919063ffffffff16565b61206c90919063ffffffff16565b90505f611244828661208190919063ffffffff16565b9050600c5f9054906101000a900473ffffffffffffffffffffffffffffffffffffffff1673ffffffffffffffffffffffffffffffffffffffff166323b872dd3330886040518463ffffffff1660e01b81526004016112a4939291906135d0565b6020604051808303815f875af11580156112c0573d5f803e3d5ffd5b505050506040513d601f19601f820116820180604052508101906112e49190613619565b50600c5f9054906101000a900473ffffffffffffffffffffffffffffffffffffffff1673ffffffffffffffffffffffffffffffffffffffff1663a9059cbb600e5f9054906101000a900473ffffffffffffffffffffffffffffffffffffffff16846040518363ffffffff1660e01b8152600401611362929190613644565b6020604051808303815f875af115801561137e573d5f803e3d5ffd5b505050506040513d601f19601f820116820180604052508101906113a29190613619565b50600c5f9054906101000a900473ffffffffffffffffffffffffffffffffffffffff1673ffffffffffffffffffffffffffffffffffffffff1663a9059cbb88836040518363ffffffff1660e01b81526004016113ff929190613644565b6020604051808303815f875af115801561141b573d5f803e3d5ffd5b505050506040513d601f19601f8201168201806040525081019061143f9190613619565b5061144b338888610a9b565b8660105f8881526020019081526020015f206001015f6101000a81548173ffffffffffffffffffffffffffffffffffffffff021916908373ffffffffffffffffffffffffffffffffffffffff1602179055508460105f8881526020019081526020015f205f018190555050505050505050565b5f7f80ac58cd000000000000000000000000000000000000000000000000000000007bffffffffffffffffffffffffffffffffffffffffffffffffffffffff1916827bffffffffffffffffffffffffffffffffffffffffffffffffffffffff1916148061158857507f5b5e139f000000000000000000000000000000000000000000000000000000007bffffffffffffffffffffffffffffffffffffffffffffffffffffffff1916827bffffffffffffffffffffffffffffffffffffffffffffffffffffffff1916145b80611598575061159782612096565b5b9050919050565b6115a8816120ff565b6115e7576040517f08c379a00000000000000000000000000000000000000000000000000000000081526004016115de906131ff565b60405180910390fd5b50565b5f33905090565b8160045f8381526020019081526020015f205f6101000a81548173ffffffffffffffffffffffffffffffffffffffff021916908373ffffffffffffffffffffffffffffffffffffffff160217905550808273ffffffffffffffffffffffffffffffffffffffff1661166183610b92565b73ffffffffffffffffffffffffffffffffffffffff167f8c5be1e5ebec7d5bd14f71427d1e84f3dd0314c0f7b2291e5b200ac8c7c3b92560405160405180910390a45050565b5f806116b283610b92565b90508073ffffffffffffffffffffffffffffffffffffffff168473ffffffffffffffffffffffffffffffffffffffff1614806116f457506116f38185610eb5565b5b8061173257508373ffffffffffffffffffffffffffffffffffffffff1661171a84610823565b73ffffffffffffffffffffffffffffffffffffffff16145b91505092915050565b8273ffffffffffffffffffffffffffffffffffffffff1661175b82610b92565b73ffffffffffffffffffffffffffffffffffffffff16146117b1576040517f08c379a00000000000000000000000000000000000000000000000000000000081526004016117a8906136db565b60405180910390fd5b5f73ffffffffffffffffffffffffffffffffffffffff168273ffffffffffffffffffffffffffffffffffffffff160361181f576040517f08c379a000000000000000000000000000000000000000000000000000000000815260040161181690613769565b60405180910390fd5b61182c838383600161213f565b8273ffffffffffffffffffffffffffffffffffffffff1661184c82610b92565b73ffffffffffffffffffffffffffffffffffffffff16146118a2576040517f08c379a0000000000000000000000000000000000000000000000000000000008152600401611899906136db565b60405180910390fd5b60045f8281526020019081526020015f205f6101000a81549073ffffffffffffffffffffffffffffffffffffffff0219169055600160035f8573ffffffffffffffffffffffffffffffffffffffff1673ffffffffffffffffffffffffffffffffffffffff1681526020019081526020015f205f8282540392505081905550600160035f8473ffffffffffffffffffffffffffffffffffffffff1673ffffffffffffffffffffffffffffffffffffffff1681526020019081526020015f205f82825401925050819055508160025f8381526020019081526020015f205f6101000a81548173ffffffffffffffffffffffffffffffffffffffff021916908373ffffffffffffffffffffffffffffffffffffffff160217905550808273ffffffffffffffffffffffffffffffffffffffff168473ffffffffffffffffffffffffffffffffffffffff167fddf252ad1be2c89b69c2b068fc378daa952ba7f163c4a11628f55a4df523b3ef60405160405180910390a4611a22838383600161229a565b505050565b5f60025f8381526020019081526020015f205f9054906101000a900473ffffffffffffffffffffffffffffffffffffffff169050919050565b611a686115ea565b73ffffffffffffffffffffffffffffffffffffffff16611a86610d08565b73ffffffffffffffffffffffffffffffffffffffff1614611adc576040517f08c379a0000000000000000000000000000000000000000000000000000000008152600401611ad3906137d1565b60405180910390fd5b565b5f600a5f9054906101000a900473ffffffffffffffffffffffffffffffffffffffff16905081600a5f6101000a81548173ffffffffffffffffffffffffffffffffffffffff021916908373ffffffffffffffffffffffffffffffffffffffff1602179055508173ffffffffffffffffffffffffffffffffffffffff168173ffffffffffffffffffffffffffffffffffffffff167f8be0079c531659141344cd1fd0a4f28419497f9722a3daafe3b4186f6b6457e060405160405180910390a35050565b8173ffffffffffffffffffffffffffffffffffffffff168373ffffffffffffffffffffffffffffffffffffffff1603611c0f576040517f08c379a0000000000000000000000000000000000000000000000000000000008152600401611c0690613839565b60405180910390fd5b8060055f8573ffffffffffffffffffffffffffffffffffffffff1673ffffffffffffffffffffffffffffffffffffffff1681526020019081526020015f205f8473ffffffffffffffffffffffffffffffffffffffff1673ffffffffffffffffffffffffffffffffffffffff1681526020019081526020015f205f6101000a81548160ff0219169083151502179055508173ffffffffffffffffffffffffffffffffffffffff168373ffffffffffffffffffffffffffffffffffffffff167f17307eab39ab6107e8899845ad3d59bd9653f200f220920489ca2b5937696c3183604051611cfb9190612918565b60405180910390a3505050565b611d1384848461173b565b611d1f848484846122a0565b611d5e576040517f08c379a0000000000000000000000000000000000000000000000000000000008152600401611d55906138c7565b60405180910390fd5b50505050565b606060405180602001604052805f815250905090565b60605f6001611d8884612422565b0190505f8167ffffffffffffffff811115611da657611da5612c33565b5b6040519080825280601f01601f191660200182016040528015611dd85781602001600182028036833780820191505090505b5090505f82602001820190505b600115611e39578080600190039150507f3031323334353637383961626364656600000000000000000000000000000000600a86061a8153600a8581611e2e57611e2d6138e5565b5b0494505f8503611de5575b819350505050919050565b5f73ffffffffffffffffffffffffffffffffffffffff168273ffffffffffffffffffffffffffffffffffffffff1603611eb2576040517f08c379a0000000000000000000000000000000000000000000000000000000008152600401611ea99061395c565b60405180910390fd5b611ebb816120ff565b15611efb576040517f08c379a0000000000000000000000000000000000000000000000000000000008152600401611ef2906139c4565b60405180910390fd5b611f085f8383600161213f565b611f11816120ff565b15611f51576040517f08c379a0000000000000000000000000000000000000000000000000000000008152600401611f48906139c4565b60405180910390fd5b600160035f8473ffffffffffffffffffffffffffffffffffffffff1673ffffffffffffffffffffffffffffffffffffffff1681526020019081526020015f205f82825401925050819055508160025f8381526020019081526020015f205f6101000a81548173ffffffffffffffffffffffffffffffffffffffff021916908373ffffffffffffffffffffffffffffffffffffffff160217905550808273ffffffffffffffffffffffffffffffffffffffff165f73ffffffffffffffffffffffffffffffffffffffff167fddf252ad1be2c89b69c2b068fc378daa952ba7f163c4a11628f55a4df523b3ef60405160405180910390a46120535f8383600161229a565b5050565b5f818361206491906139e2565b905092915050565b5f81836120799190613a23565b905092915050565b5f818361208e9190613a53565b905092915050565b5f7f01ffc9a7000000000000000000000000000000000000000000000000000000007bffffffffffffffffffffffffffffffffffffffffffffffffffffffff1916827bffffffffffffffffffffffffffffffffffffffffffffffffffffffff1916149050919050565b5f8073ffffffffffffffffffffffffffffffffffffffff1661212083611a27565b73ffffffffffffffffffffffffffffffffffffffff1614159050919050565b61214b84848484612573565b600181111561218f576040517f08c379a000000000000000000000000000000000000000000000000000000000815260040161218690613af6565b60405180910390fd5b5f8290505f73ffffffffffffffffffffffffffffffffffffffff168573ffffffffffffffffffffffffffffffffffffffff16036121d4576121cf81612579565b612213565b8373ffffffffffffffffffffffffffffffffffffffff168573ffffffffffffffffffffffffffffffffffffffff16146122125761221185826125bd565b5b5b5f73ffffffffffffffffffffffffffffffffffffffff168473ffffffffffffffffffffffffffffffffffffffff16036122545761224f81612713565b612293565b8473ffffffffffffffffffffffffffffffffffffffff168473ffffffffffffffffffffffffffffffffffffffff16146122925761229184826127d3565b5b5b5050505050565b50505050565b5f6122c08473ffffffffffffffffffffffffffffffffffffffff1661284b565b15612415578373ffffffffffffffffffffffffffffffffffffffff1663150b7a026122e96115ea565b8786866040518563ffffffff1660e01b815260040161230b9493929190613b66565b6020604051808303815f875af192505050801561234657506040513d601f19601f820116820180604052508101906123439190613bc4565b60015b6123c5573d805f8114612374576040519150601f19603f3d011682016040523d82523d5f602084013e612379565b606091505b505f8151036123bd576040517f08c379a00000000000000000000000000000000000000000000000000000000081526004016123b4906138c7565b60405180910390fd5b805181602001fd5b63150b7a0260e01b7bffffffffffffffffffffffffffffffffffffffffffffffffffffffff1916817bffffffffffffffffffffffffffffffffffffffffffffffffffffffff19161491505061241a565b600190505b949350505050565b5f805f90507a184f03e93ff9f4daa797ed6e38ed64bf6a1f010000000000000000831061247e577a184f03e93ff9f4daa797ed6e38ed64bf6a1f0100000000000000008381612474576124736138e5565b5b0492506040810190505b6d04ee2d6d415b85acef810000000083106124bb576d04ee2d6d415b85acef810000000083816124b1576124b06138e5565b5b0492506020810190505b662386f26fc1000083106124ea57662386f26fc1000083816124e0576124df6138e5565b5b0492506010810190505b6305f5e1008310612513576305f5e1008381612509576125086138e5565b5b0492506008810190505b612710831061253857612710838161252e5761252d6138e5565b5b0492506004810190505b6064831061255b5760648381612551576125506138e5565b5b0492506002810190505b600a831061256a576001810190505b80915050919050565b50505050565b60088054905060095f8381526020019081526020015f2081905550600881908060018154018082558091505060019003905f5260205f20015f909190919091505550565b5f60016125c984610c41565b6125d39190613a53565b90505f60075f8481526020019081526020015f205490508181146126aa575f60065f8673ffffffffffffffffffffffffffffffffffffffff1673ffffffffffffffffffffffffffffffffffffffff1681526020019081526020015f205f8481526020019081526020015f205490508060065f8773ffffffffffffffffffffffffffffffffffffffff1673ffffffffffffffffffffffffffffffffffffffff1681526020019081526020015f205f8481526020019081526020015f20819055508160075f8381526020019081526020015f2081905550505b60075f8481526020019081526020015f205f905560065f8573ffffffffffffffffffffffffffffffffffffffff1673ffffffffffffffffffffffffffffffffffffffff1681526020019081526020015f205f8381526020019081526020015f205f905550505050565b5f60016008805490506127269190613a53565b90505f60095f8481526020019081526020015f205490505f6008838154811061275257612751613188565b5b905f5260205f2001549050806008838154811061277257612771613188565b5b905f5260205f2001819055508160095f8381526020019081526020015f208190555060095f8581526020019081526020015f205f905560088054806127ba576127b9613bef565b5b600190038181905f5260205f20015f9055905550505050565b5f6127dd83610c41565b90508160065f8573ffffffffffffffffffffffffffffffffffffffff1673ffffffffffffffffffffffffffffffffffffffff1681526020019081526020015f205f8381526020019081526020015f20819055508060075f8481526020019081526020015f2081905550505050565b5f808273ffffffffffffffffffffffffffffffffffffffff163b119050919050565b5f604051905090565b5f80fd5b5f80fd5b5f7fffffffff0000000000000000000000000000000000000000000000000000000082169050919050565b6128b28161287e565b81146128bc575f80fd5b50565b5f813590506128cd816128a9565b92915050565b5f602082840312156128e8576128e7612876565b5b5f6128f5848285016128bf565b91505092915050565b5f8115159050919050565b612912816128fe565b82525050565b5f60208201905061292b5f830184612909565b92915050565b5f81519050919050565b5f82825260208201905092915050565b5f5b8381101561296857808201518184015260208101905061294d565b5f8484015250505050565b5f601f19601f8301169050919050565b5f61298d82612931565b612997818561293b565b93506129a781856020860161294b565b6129b081612973565b840191505092915050565b5f6020820190508181035f8301526129d38184612983565b905092915050565b5f819050919050565b6129ed816129db565b81146129f7575f80fd5b50565b5f81359050612a08816129e4565b92915050565b5f60208284031215612a2357612a22612876565b5b5f612a30848285016129fa565b91505092915050565b5f73ffffffffffffffffffffffffffffffffffffffff82169050919050565b5f612a6282612a39565b9050919050565b612a7281612a58565b82525050565b5f602082019050612a8b5f830184612a69565b92915050565b612a9a81612a58565b8114612aa4575f80fd5b50565b5f81359050612ab581612a91565b92915050565b5f8060408385031215612ad157612ad0612876565b5b5f612ade85828601612aa7565b9250506020612aef858286016129fa565b9150509250929050565b612b02816129db565b82525050565b5f602082019050612b1b5f830184612af9565b92915050565b5f805f60608486031215612b3857612b37612876565b5b5f612b4586828701612aa7565b9350506020612b5686828701612aa7565b9250506040612b67868287016129fa565b9150509250925092565b5f604082019050612b845f830185612af9565b612b916020830184612a69565b9392505050565b5f60208284031215612bad57612bac612876565b5b5f612bba84828501612aa7565b91505092915050565b612bcc816128fe565b8114612bd6575f80fd5b50565b5f81359050612be781612bc3565b92915050565b5f8060408385031215612c0357612c02612876565b5b5f612c1085828601612aa7565b9250506020612c2185828601612bd9565b9150509250929050565b5f80fd5b5f80fd5b7f4e487b71000000000000000000000000000000000000000000000000000000005f52604160045260245ffd5b612c6982612973565b810181811067ffffffffffffffff82111715612c8857612c87612c33565b5b80604052505050565b5f612c9a61286d565b9050612ca68282612c60565b919050565b5f67ffffffffffffffff821115612cc557612cc4612c33565b5b612cce82612973565b9050602081019050919050565b828183375f83830152505050565b5f612cfb612cf684612cab565b612c91565b905082815260208101848484011115612d1757612d16612c2f565b5b612d22848285612cdb565b509392505050565b5f82601f830112612d3e57612d3d612c2b565b5b8135612d4e848260208601612ce9565b91505092915050565b5f805f8060808587031215612d6f57612d6e612876565b5b5f612d7c87828801612aa7565b9450506020612d8d87828801612aa7565b9350506040612d9e878288016129fa565b925050606085013567ffffffffffffffff811115612dbf57612dbe61287a565b5b612dcb87828801612d2a565b91505092959194509250565b5f8060408385031215612ded57612dec612876565b5b5f612dfa85828601612aa7565b9250506020612e0b85828601612aa7565b9150509250929050565b5f805f60608486031215612e2c57612e2b612876565b5b5f612e3986828701612aa7565b9350506020612e4a868287016129fa565b9250506040612e5b868287016129fa565b9150509250925092565b7f4e487b71000000000000000000000000000000000000000000000000000000005f52602260045260245ffd5b5f6002820490506001821680612ea957607f821691505b602082108103612ebc57612ebb612e65565b5b50919050565b7f4552433732313a20617070726f76616c20746f2063757272656e74206f776e655f8201527f7200000000000000000000000000000000000000000000000000000000000000602082015250565b5f612f1c60218361293b565b9150612f2782612ec2565b604082019050919050565b5f6020820190508181035f830152612f4981612f10565b9050919050565b7f4552433732313a20617070726f76652063616c6c6572206973206e6f7420746f5f8201527f6b656e206f776e6572206f7220617070726f76656420666f7220616c6c000000602082015250565b5f612faa603d8361293b565b9150612fb582612f50565b604082019050919050565b5f6020820190508181035f830152612fd781612f9e565b9050919050565b7f4552433732313a2063616c6c6572206973206e6f7420746f6b656e206f776e655f8201527f72206f7220617070726f76656400000000000000000000000000000000000000602082015250565b5f613038602d8361293b565b915061304382612fde565b604082019050919050565b5f6020820190508181035f8301526130658161302c565b9050919050565b7f455243373231456e756d657261626c653a206f776e657220696e646578206f755f8201527f74206f6620626f756e6473000000000000000000000000000000000000000000602082015250565b5f6130c6602b8361293b565b91506130d18261306c565b604082019050919050565b5f6020820190508181035f8301526130f3816130ba565b9050919050565b7f455243373231456e756d657261626c653a20676c6f62616c20696e646578206f5f8201527f7574206f6620626f756e64730000000000000000000000000000000000000000602082015250565b5f613154602c8361293b565b915061315f826130fa565b604082019050919050565b5f6020820190508181035f83015261318181613148565b9050919050565b7f4e487b71000000000000000000000000000000000000000000000000000000005f52603260045260245ffd5b7f4552433732313a20696e76616c696420746f6b656e20494400000000000000005f82015250565b5f6131e960188361293b565b91506131f4826131b5565b602082019050919050565b5f6020820190508181035f830152613216816131dd565b9050919050565b7f4552433732313a2061646472657373207a65726f206973206e6f7420612076615f8201527f6c6964206f776e65720000000000000000000000000000000000000000000000602082015250565b5f61327760298361293b565b91506132828261321d565b604082019050919050565b5f6020820190508181035f8301526132a48161326b565b9050919050565b5f81905092915050565b5f6132bf82612931565b6132c981856132ab565b93506132d981856020860161294b565b80840191505092915050565b5f6132f082856132b5565b91506132fc82846132b5565b91508190509392505050565b7f4e6f206d6f7265207469636b65747320617661696c61626c65000000000000005f82015250565b5f61333c60198361293b565b915061334782613308565b602082019050919050565b5f6020820190508181035f83015261336981613330565b9050919050565b7f496e73756666696369656e742066756e647300000000000000000000000000005f82015250565b5f6133a460128361293b565b91506133af82613370565b602082019050919050565b5f6020820190508181035f8301526133d181613398565b9050919050565b7f4e487b71000000000000000000000000000000000000000000000000000000005f52601160045260245ffd5b5f61340f826129db565b91507fffffffffffffffffffffffffffffffffffffffffffffffffffffffffffffffff8203613441576134406133d8565b5b600182019050919050565b7f4f776e61626c653a206e6577206f776e657220697320746865207a65726f20615f8201527f6464726573730000000000000000000000000000000000000000000000000000602082015250565b5f6134a660268361293b565b91506134b18261344c565b604082019050919050565b5f6020820190508181035f8301526134d38161349a565b9050919050565b7f596f7520646f6e2774206f776e2074686973207469636b6574000000000000005f82015250565b5f61350e60198361293b565b9150613519826134da565b602082019050919050565b5f6020820190508181035f83015261353b81613502565b9050919050565b7f50726963652063616e6e6f74206578636565642031313025206f6620746865205f8201527f70726576696f75732073616c6520707269636500000000000000000000000000602082015250565b5f61359c60338361293b565b91506135a782613542565b604082019050919050565b5f6020820190508181035f8301526135c981613590565b9050919050565b5f6060820190506135e35f830186612a69565b6135f06020830185612a69565b6135fd6040830184612af9565b949350505050565b5f8151905061361381612bc3565b92915050565b5f6020828403121561362e5761362d612876565b5b5f61363b84828501613605565b91505092915050565b5f6040820190506136575f830185612a69565b6136646020830184612af9565b9392505050565b7f4552433732313a207472616e736665722066726f6d20696e636f7272656374205f8201527f6f776e6572000000000000000000000000000000000000000000000000000000602082015250565b5f6136c560258361293b565b91506136d08261366b565b604082019050919050565b5f6020820190508181035f8301526136f2816136b9565b9050919050565b7f4552433732313a207472616e7366657220746f20746865207a65726f206164645f8201527f7265737300000000000000000000000000000000000000000000000000000000602082015250565b5f61375360248361293b565b915061375e826136f9565b604082019050919050565b5f6020820190508181035f83015261378081613747565b9050919050565b7f4f776e61626c653a2063616c6c6572206973206e6f7420746865206f776e65725f82015250565b5f6137bb60208361293b565b91506137c682613787565b602082019050919050565b5f6020820190508181035f8301526137e8816137af565b9050919050565b7f4552433732313a20617070726f766520746f2063616c6c6572000000000000005f82015250565b5f61382360198361293b565b915061382e826137ef565b602082019050919050565b5f6020820190508181035f83015261385081613817565b9050919050565b7f4552433732313a207472616e7366657220746f206e6f6e2045524337323152655f8201527f63656976657220696d706c656d656e7465720000000000000000000000000000602082015250565b5f6138b160328361293b565b91506138bc82613857565b604082019050919050565b5f6020820190508181035f8301526138de816138a5565b9050919050565b7f4e487b71000000000000000000000000000000000000000000000000000000005f52601260045260245ffd5b7f4552433732313a206d696e7420746f20746865207a65726f20616464726573735f82015250565b5f61394660208361293b565b915061395182613912565b602082019050919050565b5f6020820190508181035f8301526139738161393a565b9050919050565b7f4552433732313a20746f6b656e20616c7265616479206d696e746564000000005f82015250565b5f6139ae601c8361293b565b91506139b98261397a565b602082019050919050565b5f6020820190508181035f8301526139db816139a2565b9050919050565b5f6139ec826129db565b91506139f7836129db565b9250828202613a05816129db565b91508282048414831517613a1c57613a1b6133d8565b5b5092915050565b5f613a2d826129db565b9150613a38836129db565b925082613a4857613a476138e5565b5b828204905092915050565b5f613a5d826129db565b9150613a68836129db565b9250828203905081811115613a8057613a7f6133d8565b5b92915050565b7f455243373231456e756d657261626c653a20636f6e73656375746976652074725f8201527f616e7366657273206e6f7420737570706f727465640000000000000000000000602082015250565b5f613ae060358361293b565b9150613aeb82613a86565b604082019050919050565b5f6020820190508181035f830152613b0d81613ad4565b9050919050565b5f81519050919050565b5f82825260208201905092915050565b5f613b3882613b14565b613b428185613b1e565b9350613b5281856020860161294b565b613b5b81612973565b840191505092915050565b5f608082019050613b795f830187612a69565b613b866020830186612a69565b613b936040830185612af9565b8181036060830152613ba58184613b2e565b905095945050505050565b5f81519050613bbe816128a9565b92915050565b5f60208284031215613bd957613bd8612876565b5b5f613be684828501613bb0565b91505092915050565b7f4e487b71000000000000000000000000000000000000000000000000000000005f52603160045260245ffdfea2646970667358221220343e84766932c2eee60b0026dcba42b554db6a5deccd10bedc7f651266dce57364736f6c63430008150033",
  "immutableReferences": {},
  "source": "// SPDX-License-Identifier: MIT\r\npragma solidity ^0.8.0;\r\n\r\n// import \"@openzeppelin/contracts/token/ERC721/extensions/ERC721Enumerable.sol\";\r\n// import \"@openzeppelin/contracts/access/Ownable.sol\";\r\n// import \"@openzeppelin/contracts/token/ERC20/IERC20.sol\";\r\n// import \"@openzeppelin/contracts/utils/math/SafeMath.sol\";\r\n\r\n// contract FestivalTicketNFT is ERC721Enumerable, Ownable {\r\n//     using SafeMath for uint256;\r\n    \r\n//     uint256 public maxTickets = 1000;\r\n//     uint256 public ticketPrice = 1 ether;\r\n//     uint256 public currentTicketId = 1;\r\n//     address public currencyToken;\r\n//     uint256 public organizerCutPercentage = 5; // Organizer's cut percentage (5% in this example)\r\n//     uint256 public constant priceIncreasePercentage = 110; // Maximum 110% price increase\r\n//     address public organizer;\r\n\r\n    \r\n\r\n//     constructor(address _currencyToken) ERC721(\"FestivalTicket\", \"FT\") {\r\n//         currencyToken = _currencyToken;\r\n//         organizer = msg.sender; // Initialize the organizer variable with the contract deployer's address\r\n//     }\r\n\r\n//     function setOrganizerCutPercentage(uint256 _cutPercentage) external onlyOwner {\r\n//         organizerCutPercentage = _cutPercentage;\r\n//     }\r\n\r\n//     function buyTicket() external payable {\r\n//         require(msg.value >= ticketPrice, \"Insufficient funds\");\r\n//         require(currentTicketId <= maxTickets, \"No more tickets available\");\r\n//         _mint(msg.sender, currentTicketId);\r\n//         currentTicketId++;\r\n//     }\r\n\r\n//     function sellTicket(address to, uint256 tokenId, uint256 price) external {\r\n//         require(ownerOf(tokenId) == msg.sender, \"You don't own this ticket\");\r\n//         require(price <= ticketPrice.mul(110).div(100), \"Price cannot exceed 110% of the previous sale price\");\r\n\r\n//         uint256 priceIncrease = price.mul(priceIncreasePercentage).div(100);\r\n//         uint256 organizerCut = priceIncrease;\r\n//         uint256 sellerProceeds = price.sub(organizerCut);\r\n\r\n//         // Check if the contract is approved to spend tokens on behalf of the seller\r\n//         require(IERC20(currencyToken).allowance(msg.sender, address(this)) >= price, \"Allowance not set\");\r\n\r\n//         IERC20(currencyToken).transferFrom(msg.sender, address(this), price);\r\n//         IERC20(currencyToken).transfer(organizer, organizerCut);\r\n//         IERC20(currencyToken).transfer(to, sellerProceeds);\r\n\r\n//         safeTransferFrom(msg.sender, to, tokenId);\r\n//     }\r\n\r\n// }\r\n\r\n\r\n/////////////////////////////////////////////////////////\r\n\r\n\r\nimport \"@openzeppelin/contracts/token/ERC721/extensions/ERC721Enumerable.sol\";\r\nimport \"@openzeppelin/contracts/access/Ownable.sol\";\r\nimport \"@openzeppelin/contracts/token/ERC20/IERC20.sol\";\r\nimport \"@openzeppelin/contracts/utils/math/SafeMath.sol\";\r\n\r\ncontract FestivalTicketNFT is ERC721Enumerable, Ownable {\r\n    using SafeMath for uint256;\r\n\r\n    struct Ticket {\r\n        uint256 price;\r\n        address owner;\r\n    }\r\n\r\n    uint256 public maxTickets = 1000;\r\n    address public currencyToken;\r\n    uint256 public organizerCutPercentage = 5; // Organizer's cut percentage (5% in this example)\r\n    uint256 public constant priceIncreasePercentage = 110; // Maximum 110% price increase\r\n    address public organizer;\r\n    uint256 public currentTicketId = 1;\r\n\r\n    // Mapping to store ticket information\r\n    mapping(uint256 => Ticket) public tickets;\r\n\r\n    constructor(address _currencyToken) ERC721(\"FestivalTicket\", \"FT\") {\r\n        currencyToken = _currencyToken;\r\n        organizer = msg.sender; // Initialize the organizer variable with the contract deployer's address\r\n    }\r\n\r\n    modifier onlyTicketOwner(uint256 tokenId) {\r\n        require(ownerOf(tokenId) == msg.sender, \"You don't own this ticket\");\r\n        _;\r\n    }\r\n\r\n    modifier ticketsAvailable() {\r\n        require(currentTicketId <= maxTickets, \"No more tickets available\");\r\n        _;\r\n    }\r\n\r\n    function setOrganizerCutPercentage(uint256 _cutPercentage) external onlyOwner {\r\n        organizerCutPercentage = _cutPercentage;\r\n    }\r\n\r\n    function ticketPrice() public pure returns (uint256) {\r\n        // Fixed price of 1 ether\r\n        return 1 ether;\r\n    }\r\n\r\n    function buyTicket() external payable ticketsAvailable {\r\n        // Ensure the sent Ether matches or exceeds the current ticket price.\r\n        uint256 currentTicketPrice = ticketPrice();\r\n        require(msg.value == currentTicketPrice, \"Insufficient funds\");\r\n\r\n        // Mint the ticket and record its information\r\n        _mint(msg.sender, currentTicketId);\r\n        tickets[currentTicketId] = Ticket(currentTicketPrice, msg.sender);\r\n        currentTicketId++;\r\n    }\r\n\r\n    function sellTicket(address to, uint256 tokenId, uint256 price) external onlyTicketOwner(tokenId) {\r\n        // Ensure the selling price doesn't exceed 110% of the previous sale price.\r\n        uint256 maxPrice = tickets[tokenId].price.mul(priceIncreasePercentage).div(100);\r\n        require(price <= maxPrice, \"Price cannot exceed 110% of the previous sale price\");\r\n\r\n        // Calculate the amount that goes to the organizer (organizerCutPercentage).\r\n        uint256 organizerCut = price.mul(organizerCutPercentage).div(100);\r\n        uint256 sellerProceeds = price.sub(organizerCut);\r\n\r\n        // Transfer tokens accordingly.\r\n        IERC20(currencyToken).transferFrom(msg.sender, address(this), price);\r\n        IERC20(currencyToken).transfer(organizer, organizerCut);\r\n        IERC20(currencyToken).transfer(to, sellerProceeds);\r\n\r\n        // Transfer ownership of the token.\r\n        safeTransferFrom(msg.sender, to, tokenId);\r\n\r\n        // Update the ticket's owner and price.\r\n        tickets[tokenId].owner = to;\r\n        tickets[tokenId].price = price;\r\n    }\r\n}\r\n",
  "sourcePath": "C:\\Users\\Dell\\Desktop\\Projects\\FestTicket\\contracts\\FestivalTicketNFT.sol",
  "compiler": {
    "name": "solc",
    "version": "0.8.21+commit.d9974bed.Emscripten.clang"
  },
  "schemaVersion": "3.4.16",
  "updatedAt": "2023-09-11T09:50:16.243Z",
  "networkType": "ethereum",
  "devdoc": {
    "events": {
      "Approval(address,address,uint256)": {
        "details": "Emitted when `owner` enables `approved` to manage the `tokenId` token."
      },
      "ApprovalForAll(address,address,bool)": {
        "details": "Emitted when `owner` enables or disables (`approved`) `operator` to manage all of its assets."
      },
      "Transfer(address,address,uint256)": {
        "details": "Emitted when `tokenId` token is transferred from `from` to `to`."
      }
    },
    "kind": "dev",
    "methods": {
      "approve(address,uint256)": {
        "details": "See {IERC721-approve}."
      },
      "balanceOf(address)": {
        "details": "See {IERC721-balanceOf}."
      },
      "getApproved(uint256)": {
        "details": "See {IERC721-getApproved}."
      },
      "isApprovedForAll(address,address)": {
        "details": "See {IERC721-isApprovedForAll}."
      },
      "name()": {
        "details": "See {IERC721Metadata-name}."
      },
      "owner()": {
        "details": "Returns the address of the current owner."
      },
      "ownerOf(uint256)": {
        "details": "See {IERC721-ownerOf}."
      },
      "renounceOwnership()": {
        "details": "Leaves the contract without owner. It will not be possible to call `onlyOwner` functions. Can only be called by the current owner. NOTE: Renouncing ownership will leave the contract without an owner, thereby disabling any functionality that is only available to the owner."
      },
      "safeTransferFrom(address,address,uint256)": {
        "details": "See {IERC721-safeTransferFrom}."
      },
      "safeTransferFrom(address,address,uint256,bytes)": {
        "details": "See {IERC721-safeTransferFrom}."
      },
      "setApprovalForAll(address,bool)": {
        "details": "See {IERC721-setApprovalForAll}."
      },
      "supportsInterface(bytes4)": {
        "details": "See {IERC165-supportsInterface}."
      },
      "symbol()": {
        "details": "See {IERC721Metadata-symbol}."
      },
      "tokenByIndex(uint256)": {
        "details": "See {IERC721Enumerable-tokenByIndex}."
      },
      "tokenOfOwnerByIndex(address,uint256)": {
        "details": "See {IERC721Enumerable-tokenOfOwnerByIndex}."
      },
      "tokenURI(uint256)": {
        "details": "See {IERC721Metadata-tokenURI}."
      },
      "totalSupply()": {
        "details": "See {IERC721Enumerable-totalSupply}."
      },
      "transferFrom(address,address,uint256)": {
        "details": "See {IERC721-transferFrom}."
      },
      "transferOwnership(address)": {
        "details": "Transfers ownership of the contract to a new account (`newOwner`). Can only be called by the current owner."
      }
    },
    "version": 1
  },
  "userdoc": {
    "kind": "user",
    "methods": {},
    "version": 1
  }
}